:1000000044C06AC15BC05AC059C058C057C056C02E
:1000100055C054C053C052C051C050C04FC04EC054
:100020004DC04CC04BC009021200010100C00A09BA
:10003000040000000000000012011001FF00000891
:10004000C016DC0500010102000114035300630027
:100050006F0070006500540065006D00700028039B
:100060006D0063006F006E006F0076006900630032
:100070006900400067006D00610069006C002E009F
:1000800063006F006D000403090411241FBECFED4F
:10009000CDBF10E0A0E6B0E0E2E7F7E002C00590D7
:1000A0000D92A238B107D9F720E0A2E8B0E001C074
:1000B0001D92A93BB207E1F7E6D259C3A1CFCF9376
:1000C000DF9380919D00835087FD8FC090919900B0
:1000D000209198002D3209F086C0883009F083C045
:1000E000CCE0D0E0C91BD109CF55DF4F83EC809322
:1000F0008C008AE580936100109282002881822F13
:10010000807619F0CE0176D265C08A811092950072
:10011000998191110BC02F7119F481E080939500A2
:100120001092960025E930E082E050C0953019F435
:1001300080939E003DC09630A9F59B81913019F4C3
:1001400088E390E004C0923041F486E290E090931E
:100150009C0080939B0082E121C09330F1F48111D7
:1001600008C086E890E090939C0080939B0084E018
:1001700015C0813041F48EE590E090939C0080930F
:100180009B0088E20BC0823041F48AE490E09093B7
:100190009C0080939B0084E101C080E090E49093F8
:1001A000820018C0983079F0993031F48093A00023
:1001B00025E930E080E00AC081E09A3009F080E073
:1001C00025E930E003C020EA30E081E030939C0074
:1001D00020939B009F81911104C09E81981708F481
:1001E000892F8093600010929D008091610084FFB0
:1001F00046C0809160008F3F09F441C0C82F89300C
:1002000008F0C8E08C1B8093600080918C0098E817
:10021000892780938C00CC2331F120919B00309171
:100220009C008091820086FF0BC0ADE8B0E0F90130
:100230008C2F8A0F94919D9331968A13FBCF09C01E
:10024000D901EDE8F0E08C2F8E0F9D9191938E13E4
:10025000FCCF8FEF8C0F90E00196820F931F90934D
:100260009C0080939B006C2F8DE890E031D0CC5F98
:10027000CC3019F08FEF80936000C093610084E16F
:1002800090B3957031F48150D9F710929E0010927E
:100290009700DF91CF91089585B7826085BF8BB7B6
:1002A00080648BBF0895A82FB92F80E090E041E0D3
:1002B00050EA609530E009C02D9182279795879587
:1002C00010F084279527305EC8F36F5FA8F3089578
:1002D000EADF8D939D930895CF93CFB7CF93C395C6
:1002E000829BE9F7829B0EC0829B0CC0829B0AC056
:1002F000829B08C0829B06C0C0919A00C395C093A0
:100300009A00A1C0DF93C0919900DD27CF55DF4F40
:10031000829B02C0DF91E6CF2F930F931F9300B310
:100320002FEF02FB20F94F933F9310B34FEF0127BC
:1003300002FB21F93BE031C04E7F012F10B3216059
:1003400028C0102F4D7F2260000000B329C04B7FD2
:100350002460012F000010B32BC010B3477F28602A
:100360002AC04F7E00B320612CC04F7D10B32062A5
:100370002FC04F7B00B3206432C0422700B34993A3
:100380004FEF0000102712FB20F910B31570C9F1D0
:10039000297F91F2012702FB21F900B3237F89F223
:1003A000315058F1102712FB22F910B3277E79F251
:1003B000012702FB23F92F7C81F200B3102712FBE7
:1003C00024F92F7971F200C010B3012702FB25F93F
:1003D0002F7359F200C000B3102712FB26F9223008
:1003E00040F200C010B3012702FB27F9243028F6A1
:1003F0004F77206810B30000F9CF10E41ABF002730
:1004000017C03B503195C31BD04010E41ABF088180
:10041000033CE9F00B34D9F0209197001981110FBA
:100420001213EDCF093641F10D3211F0013E39F7CB
:1004300000939F003F914F911F910F912F91DF915A
:10044000CAB7C6FD4CCFCF91CFBFCF9118952091A1
:100450009F00222379F310919D00112311F5343070
:1004600012F130939D0020939800109199003BE089
:10047000311B3093990017C000919D0001308CF41E
:100480000AE53091610034FD10C000936100CCE8B2
:10049000D0E00FC02795A8F45150A9F4220F000016
:1004A000F9CF4AE503C042ED01C0432FC4E1D0E0DB
:1004B00032E011B31560929A11BB02B320E415E04B
:1004C0005F93012756E002BB279520F4515021F499
:1004D000220FF9CF012756E000003B5A02BBD0F2B1
:1004E000279528F4515029F4220F0000F9CF012755
:1004F00056E0279502BB20F4515021F4220FF9CF8A
:10050000012756E02991332302BB21F60A7F10917F
:100510009E00110FC651D04002BB11F010939700FE
:1005200010E41ABF046011B31A7F402F4A7F5F9115
:1005300000C000C002BB11BB42BB7CCFE091B70042
:10054000F091B800808198B3282F2095922398BB12
:1005500097B3982B97BBEFE9F5E03197F1F700C01F
:10056000000097B3922397BBE5ECF0E03197F1F7E9
:1005700000C0000026B3E9EDF4E03197F1F700C0C8
:10058000000096B3982311F08223089581E0089526
:10059000E091B700F091B800208197B3922B97BB00
:1005A00094E09A95F1F7322F3095882319F097B39C
:1005B000932397BB98E39A95F1F796B3922309F4A6
:1005C00080E094EB9A95F1F797B3932397BB089546
:1005D000CF93DF93C82FD8E08C2F8170D9DFC695D9
:1005E0008111C068D150C1F78C2FDF91CF91089550
:1005F0008FEFEECFFC0182819181923099F09330A0
:10060000A9F0913029F5837090E023E0880F991FBD
:100610002A95E1F78C599F4F90939C0080939B0003
:1006200084E0089592B38A73957C10C0C79828B36C
:1006300080FF02C090E801C090E0922B98BB969892
:1006400092B381FF02C080E401C080E0892B82BBAD
:1006500080E00895FC01680F791F80E048E1E6170B
:10066000F70781F0219198E0322F3827532F5170EE
:1006700030FD84278695513009F480682695915085
:1006800099F7EDCF089581B38A6781BB82B38578EE
:1006900082BBBF9AC79800DE8A9A86E9EFE6F7E147
:1006A0003197F1F700C000008150C1F78A98789423
:1006B00010E002E0FF24F39402DDE12FF0E033E0EC
:1006C000EE0FFF1F3A95E1F7EE59FF4FF093B80098
:1006D000E093B7008181813089F018F08230C9F051
:1006E00043C02CDF811104C08CEC72DF84E470DF26
:1006F000E091B700F091B800F18236C0808190E0BF
:1007000077DF8F3F89F5E091B700F091B800018362
:100710002BC014DF811123C08CEC5ADF8EEB58DF25
:10072000C3E8D0E065DF8993F0E0CC38DF07D1F78C
:1007300069E070E083E890E08DDF811115C0E09101
:10074000B700F091B800809183008283809184008B
:10075000838380918900848380918A008583E091DE
:10076000B700F091B80011821F5F1370A5CFF89405
:02077000FFCFB9
:10077200FF5A2000000000000000100000000000EE
:10078200000008000000000000000400000000005B
:02079200000065
:00000001FF
